:1000000061C0000087C0000085C0000083C0000000
:1000100081C000007FC000007DC000007BC00000E8
:1000200079C0000077C0000075C0000073C00000F8
:1000300071C000000C9457256DC000006BC000001B
:100040000C947E2967C000000C94B82C0C94EA2C08
:1000500061C000005FC000005DC000005BC0000028
:1000600059C0000057C00000000000080002010055
:100070000003040700000000000000000102040863
:100080001020408001020408102001020408102002
:10009000040404040404040402020202020203032E
:1000A00003030303000000002300260029000000D2
:1000B0000000250028002B0000000000240027007D
:1000C0002A000F2D11241FBECFEFD8E0DEBFCDBF19
:1000D00011E0A0E0B1E0E2EAFBE502C005900D927C
:1000E000AE3CB107D9F725E0AEECB1E001C01D92FE
:1000F000AF32B207E1F710E0C2E6D0E004C02197CA
:10010000FE010E94A02DC136D107C9F70E94DB264F
:100110000C94CF2D75CFCF92DF92EF92FF920F9379
:100120001F93E82FF92F05C001501109210931094A
:1001300061F1908196239417B9F305C0015011091C
:100140002109310911F1908196239413F7CFC12C25
:10015000D12CE12CF12C0AC08FEFC81AD80AE80A7A
:10016000F80A0C151D052E053F0579F080818623C0
:10017000841791F36C2D7D2D8E2D9F2D1F910F9146
:10018000FF90EF90DF90CF90089560E070E080E006
:1001900090E01F910F91FF90EF90DF90CF90089526
:1001A000611102C00C94FD2A6130E1F362E0FACFE4
:1001B000662319F061E00C94392B60E0FCCFCF93FB
:1001C000DF93882349F0EB0181500E945E2A9983D6
:1001D0008883DF91CF910895FB0111821082F9CFBE
:1001E0000F931F938B019C0183E0369527951795FC
:1001F00007958A95D1F709521E4F462F477021E087
:1002000030E0F90102C0EE0FFF1F4A95E2F7AF019F
:10021000F80120812423CB010196211102C090E036
:1002200080E01F910F9108950F931F938B019C0104
:1002300083E036952795179507958A95D1F76770CE
:1002400081E090E001C0880F6A95EAF7F801E95271
:10025000FE4F2081452B31F48095822380831F91AE
:100260000F910895822BFACFCF92DF92EF92FF92F7
:10027000CF93DF936B017C0160E08EE0C816D10460
:10028000E104F10490F48EE08C0D0E94FD2AE60159
:100290002196AE01C701B601C7DFCE01DF91CF9134
:1002A000FF90EF90DF90CF9008958C2DEECF8823B4
:1002B00041F08150682F70E090E080E050E040E035
:1002C000B3CF0895CF92DF92EF92FF92CF9388231E
:1002D00051F16A017B01CFEFC80F20E030E0A901A6
:1002E000CB01B6010E94C82718168CF0C701B601D1
:1002F00090580E9439289B01AC016C2F70E090E06F
:1003000080E0CF91FF90EF90DF90CF90B2C0C70117
:10031000B6010E9434288C2FCF91FF90EF90DF9090
:10032000CF900C94792ACF91FF90EF90DF90CF90EF
:1003300008950F931F938B019C0183E036952795B9
:10034000179507958A95D1F702531E4F462F477090
:1003500021E030E0F90102C0EE0FFF1F4A95E2F7FD
:10036000AF01F80120812423CB010196211102C0A5
:1003700090E080E01F910F9108950F931F938B01E0
:100380009C0183E036952795179507958A95D1F7B7
:10039000677081E090E001C0880F6A95EAF7F80184
:1003A000E253FE4F2081452B31F4809582238083D8
:1003B0001F910F910895822BFACF2F923F924F9267
:1003C0005F926F927F928F929F92AF92BF92CF92E5
:1003D000DF92EF92FF920F931F93CF93DF93D62E6E
:1003E000C72E782E692E49015A01280161E08D2D12
:1003F0000E94FD2ACD2DDC2D8E010F5F1F4FA8011D
:100400006D2D7C2D872D962DB8DF20E030E0A901E1
:10041000C201B7010E941729181664F4C201B7017E
:100420000E9439282B01C501B4010E943928A2017C
:10043000CE0123D0C801DF91CF911F910F91FF9082
:10044000EF90DF90CF90BF90AF909F908F907F9074
:100450006F905F904F903F902F900895882341F0C8
:100460008150682F70E090E080E050E040E085CF60
:100470000895862FB9010C94792A9C01FC01E85952
:10048000FF4FE491E33061F140F4E13011F1E230EB
:1004900021F160E0822F0C94392BE730C1F1E83074
:1004A00009F441C0E430A9F7809180008C7F82601C
:1004B0008093800090918100907E9061692B609381
:1004C0008100509387004093860080918000806275
:1004D0001BC084B5806884BDDCCF84B58062FBCF4F
:1004E000809180008C7F8260809380009091810059
:1004F000907E9061692B60938100509387004093B8
:10050000860080918000806880938000C2CF8091B7
:10051000B00080688093B0008091B100887F682B24
:100520006093B100B6CF8091B0008062F3CFCF93DB
:10053000C62F61E00E94FD2A60E08C2FCF910C94C1
:10054000FD2A4F925F926F927F92AF92BF92CF92AD
:10055000DF92EF92FF920F931F93CF93DF935C0193
:10056000162FC42FD22F611104C061E0842F0E9486
:10057000FD2A60E08C2F0E94392B0E94C8292B0194
:100580003C010E94C82964197509860997096630DB
:10059000710581059105A8F361E08C2F0E94392B2C
:1005A0000E94C8292B013C01C02ED12CF12CE12C3A
:1005B0000E94C8296419750986099709C616D706C5
:1005C000E806F906A8F760E08C2F0E94392B11117C
:1005D00004C060E08D2F0E94FD2A20E432E44FE049
:1005E00050E061E08D2F0E94662BF50160837183DE
:1005F00082839383DF91CF911F910F91FF90EF90B2
:10060000DF90CF90BF90AF907F906F905F904F90B2
:10061000089590E080E008950F931F93009709F4E8
:1006200087C06115710509F483C000911001109114
:10063000110120911201309113010E3F1F4F2F4FD6
:100640003F4F09F066C04FEF5FEFBA0140931001D2
:1006500050931101609312017093130140911001A6
:10066000509111016091120170911301DC011296F9
:10067000ED91FC9180819181A281B38180935E0292
:1006800090935F02A0936002B09361028481958190
:10069000A681B78180935A0290935B02A0935C027B
:1006A000B0935D0280859185A285B38580935602C3
:1006B00090935702A0935802B09359028485958570
:1006C000A685B7858093520290935302A09354025B
:1006D000B093550210924E0210924F0210925002A7
:1006E00010925102ECD584E899E09093E101809357
:1006F000E0019093E3018093E201D0D4009731F4BC
:1007000021E030E030936302209362021F910F9149
:100710000895009110011091110120911201309162
:100720001301DB010D931D932D933C93139796CFEB
:100730008FEF9FEFEBCF8F929F92AF92BF92CF92AE
:10074000DF92EF92FF921F93CF93DF934B015C01F7
:100750001091650282E090E09093630280936202C0
:1007600081149104A104B10441F4809165028111C6
:1007700004C080916402C1E08111C0E0C12CD12C81
:10078000760180916502811106C080916402811119
:1007900002C0CC23D9F083E090E090936302809371
:1007A0006202CC2379F1CCE9DFEF111102C00E9483
:1007B000E80CCE01DF91CF911F91FF90EF90DF9079
:1007C000CF90BF90AF909F908F9008956AE070E0B7
:1007D00080E090E00E94ED2980E1C80E87E2D81EFB
:1007E000E11CF11C8FEF88169806A806B80631F0B8
:1007F000C1E08C149D04AE04BF0408F0C0E080E0AA
:1008000081D4BFCFD0E0C0E0D0CFCF92DF92EF92C3
:10081000FF920F931F93CF93DF938F3F910511F0BA
:1008200008F050C0209162023091630223303105FC
:1008300039F020916202309163022130310531F4A8
:1008400024E030E030936302209362026A017B016E
:10085000EC0182309105A0F011E0AE01C701B601B4
:100860001CD4AB01BC01CE011123F9F0DF91CF9173
:100870001F910F91FF90EF90DF90CF900C94110F8C
:100880008C01000F111F00521E4FD8018D919C91B9
:10089000892B11F30E941B0F0297F1F6D801ED91FD
:1008A000FC91CE010995182FD8CF0E94330F90E00C
:1008B00080E0DF91CF911F910F91FF90EF90DF903B
:1008C000CF9008958FEF9FEFF4CF80E01BC4CF93BC
:1008D000DF9386E090E090936302809362026BD492
:1008E000EC01E0EEF1E084E0DF011D928A95E9F78A
:1008F0000E94800C1092630210926202CE01DF917E
:10090000CF91089580916402089580914D020895D9
:100910006093100170931101809312019093130161
:1009200090E080E00895FC0191E080912B0281111C
:1009300090E0918308954F925F926F927F928F9291
:100940009F92AF92BF92CF92DF92EF92FF928091EF
:100950002B028F5F8A3008F070C080932B02C0900A
:100960001602D0901702E0901802F09019028FEF53
:10097000C81AD80AE80AF80AC0921602D0921702DA
:10098000E0921802F0921902C114D104E104F104BA
:1009900099F480911A0290911B02A0911C02B091CF
:1009A0001D020196A11DB11D80931A0290931B0296
:1009B000A0931C02B0931D0280901E0290901F0213
:1009C000A0902002B090210260911A0270911B0247
:1009D00080911C0290911D020E946528A50194013E
:1009E0000E941B2920E030E040E85FE40E941B29C0
:1009F0002B013C01C701B6010E946528A5019401A5
:100A00000E941B299B01AC01C301B2010E94642713
:100A10006093120270931302809314029093150254
:100A2000FF90EF90DF90CF90BF90AF909F908F900E
:100A30007F906F905F904F90089510922B028FCF10
:100A4000CF92DF92EF92FF920F931F93CF93DF939A
:100A500000D000D0CDB7DEB7809120058111109273
:100A600020050AE025E044E061E0CE01019669DD61
:100A700069817A818B819C810E9465282EEA34ED00
:100A800043EB59E30E941B2920E030E040E05FE3A4
:100A90000E941B292091040130910501409106011B
:100AA000509107010E941B296093F9047093FA0486
:100AB0008093FB049093FC0411E020910801309195
:100AC000090140910A0150910B010E94C827181694
:100AD0000CF410E01093FF04612F8CE069DBC090F0
:100AE0000001D0900101E0900201F0900301A70104
:100AF0009601609108057091090580910A05909111
:100B00000B050E94C827882341F0C0920805D092A7
:100B10000905E0920A05F0920B0563E170E080E0C0
:100B200090E05EDB909307058093060543E050E07C
:100B30006DEF74E044DBC0900C01D0900D01E090AB
:100B40000E01F0900F0120E030E04FE753E4C701C1
:100B5000B6010E94C827181634F4C12CD12C8FE797
:100B6000E82E83E4F82E63E070E080E090E0E1DBC3
:100B70008C0190931B0580931A0520E030E0A901B9
:100B8000C701B6010E94172987FF03C0C12CD12CD1
:100B9000760120E030E04FE753E4C701B6010E9440
:100BA0001B2920E030E04FE753E40E94CC27AB0143
:100BB000BC017058C80186DB8FEF9FEFDC0180938A
:100BC000230590932405A0932505B09326058091D5
:100BD000220290912302A0912402B0912502019655
:100BE000A11DB11D8093220290932302A0932402A1
:100BF000B0932502892B8A2B8B2B99F480912602A6
:100C000090912702A0912802B09129020196A11D7E
:100C1000B11D8093260290932702A0932802B093DF
:100C200029020F900F900F900F90DF91CF911F919D
:100C30000F91FF90EF90DF90CF9008958F929F9249
:100C4000AF92BF92DF92EF92FF920F931F93CF93D9
:100C5000DF93ECEFF1E085E3DF011D928A95E9F780
:100C600080E090E0A0E8BFEB80AB91ABA2ABB3AB70
:100C70008FE692E1A3E8BAE382A393A3A4A3B5A36A
:100C800081E396E2AAEAB4EB84839583A683B783D3
:100C900087E49AE8AEE5B2EA80879187A287B387B6
:100CA00080E190E2A9E4B2EB84879587A687B787B5
:100CB00082ED96EFA4EBBEED808B918BA28BB38B74
:100CC000A0EFB1E0B383A283E4EEF1E01196FC93D0
:100CD000EE938AE391E0918380839383828395836B
:100CE000848397838683918780879387828780E137
:100CF00092E015969C938E93149780E092E0139661
:100D00009C938E93129782E192E017969C938E9318
:100D10001697E9EFF4E087E0DF011D928A95E9F785
:100D2000C0E0D5E08DE2FE0111928A95E9F7DD245D
:100D3000D394D8A6812C912C540183948C8E9D8EB3
:100D4000AE8EBF8E65E084E0F2DB18A21C86DCA6C6
:100D50008D869E86AF86B88A61E08CE021DAD98ADA
:100D60001882DBA68091000190910101A0910201FF
:100D7000B091030188879987AA87BB8789829A8265
:100D8000AB82BC8263E170E080E090E06DDA9F832B
:100D90008E83DD821C8AD9A68D8A9E8AAF8AB88E00
:100DA000E12CF12C0FE713E420E030E040E050E4C8
:100DB00063E070E080E090E000DB9B8F8A8FD98E4B
:100DC0001AA68FEF9FEFDC018BA39CA3ADA3BEA35C
:100DD000DF91CF911F910F91FF90EF90DF90BF9027
:100DE000AF909F908F90089580910C05811103C062
:100DF00081E080930C058091000581111DC081E088
:100E0000809300058091010590910205A091030552
:100E1000B09104050197A105B10571F48091050514
:100E2000882351F063E170E080E090E0D9D990939D
:100E30000705809306053BDA8091140581112BC0CC
:100E400081E0809314058091150590911605A0917D
:100E50001705B09118050197A105B105E1F480913E
:100E600019058823C1F063E070E080E090E061DA6A
:100E700090931B0580931A0540E050E060E070E815
:100E800021DA63E070E080E090E053DA90931B0594
:100E900080931A05E3CA08954F925F926F927F92F2
:100EA0008F929F92AF92BF92CF92DF92EF92FF927A
:100EB0000F931F93F89440903D0250903E02609033
:100EC0003F0270904002C0903102D0903202E09018
:100ED0003302F0903402452B09F0A4C09B01AC0111
:100EE000241935094609570929013A0100913902A7
:100EF00010913A0220913B0230913C024801590185
:100F0000840C951CA61CB71C80169106A206B3067D
:100F1000A0F40091350210913602209137023091F1
:100F200038020F5F1F4F2F4F3F4F00933502109332
:100F30003602209337023093380280923902909221
:100F40003A02A0923B02B0923C020091350210910D
:100F500036022091370230913802809241029092FD
:100F60004202A0924302B0924402009345021093C1
:100F70004602209347023093480260933D027093EB
:100F80003E0280933F0290934002A8EEB3E0A3019B
:100F900092010E94A62D6C0D7D1D8E1D9F1D6093DC
:100FA00031027093320280933302909334020091A5
:100FB00010011091110120911201309113010F3F86
:100FC0001F4F2F4F3F4FF1F0009110011091110171
:100FD00020911201309113010E3F1F4F2F4F3F4FB1
:100FE00089F0C0901001D0901101E0901201F090B2
:100FF000130121E08C149D04AE04BF0408F420E02A
:1010000020934D0278941F910F91FF90EF90DF9005
:10101000CF90BF90AF909F908F907F906F905F9098
:101020004F9008954B015C0184189508A608B708F5
:10103000A3019201261B370B480B590B641575054C
:1010400086059705D0F082169306A406B50640F4EF
:1010500020E030E0A90181149104A104B10491F4CD
:10106000A8EEB3E00E94A62DA7019601261B370B20
:10107000480B590BCA01B901C5CF82169306A406C5
:10108000B50670F7A8EEB3E0A50194010E94A62D65
:101090006C0D7D1D8E1D9F1DB5CFFECECF93DF93B2
:1010A00000D000D0CDB7DEB71C821B821A82198215
:1010B0001092490210924A0210924B0210924C0276
:1010C000BE016F5F7F4FCE0103960E943B25698171
:1010D0007A818B819C810E94331E009761F4BE014E
:1010E0006F5F7F4FCE0103960E94472569817A8109
:1010F0008B819C812CD50F900F900F900F90DF91DA
:10110000CF910895FF920F931F93CF93DF93082FF2
:1011100060E070E0CB010E94ED29FF24F3940E946F
:101120001E1DEC01892B89F010E0CE3F8FEFD80710
:1011300069F0002361F160E070E0CB010E94ED29CD
:1011400081E090E0892B59F322C011E023D5EC0116
:10115000892B21F0CE3F8FEFD80759F711111EC010
:1011600011E0229609F410E00E94CF1CEC01892BBB
:1011700021F0CE3F8FEFD807E1F6111111C011E039
:10118000CE3F8FEFD80709F410E001110BC0CE015C
:10119000DF91CF911F910F91FF90089511E0E4CF5F
:1011A00011E0F3CF60E070E0CB010E94ED291F2534
:1011B000812F90E0C7CFCF93DF9380914D0288239A
:1011C00021F060E070E0CB014CD635D6D0E0C0E035
:1011D000892B71F06AE070E080E090E00E94ED29D8
:1011E00081E090DF28D62196C03D27E0D20781F725
:1011F00027D60E94871E10926502109264021092F8
:101200005E0210925F0210926002109261021092D0
:101210005A0210925B0210925C0210925D021092D0
:1012200056021092570210925802109259021092D0
:1012300052021092530210925402109255021092D0
:101240004E0210924F0210925002109251024EEF35
:101250005FEF6FEF7FEF40931001509311016093A8
:1012600012017093130110924D02E1E4F2E028E0C4
:10127000DF011D922A95E9F710923D0210923E027D
:1012800010923F02109240021092390210923A02DC
:1012900010923B0210923C021092350210923602DC
:1012A00010923702109238021092310210923202DC
:1012B0001092330210923402DF91CF910895109270
:1012C00071021092720210927302109274021092C4
:1012D00070028091790290917A0290936F028093CC
:1012E0006E0210926D0210926C02109268021092BF
:1012F000690210926A0210926B02109276021092AA
:10130000750290E080E00895CF92DF92EF92FF9215
:101310000F931F93CF938C01892B09F055C0209117
:10132000790230917A0280916E0290916F02409121
:10133000790250917A0250936F0240936E022817FF
:10134000390781F010926D0210926C0210926802BF
:101350001092690210926A0210926B021092760249
:10136000109275028091790290917A02019761F54D
:101370008091750290917602892B21F4809114015D
:10138000811112C080917502909176020197E1F46B
:101390008091680290916902A0916A02B0916B02FB
:1013A0000197A105B10581F41092680210926902BB
:1013B00010926A0210926B021092140182E090E087
:1013C00090937602809375028091790290917A02CF
:1013D000019709F01CC180918F02909190028017B3
:1013E000910709F014C180918B0290918C02A09119
:1013F0008D02B0918E02009709F409C120918A02F2
:1014000021110DC040918B0250918C0260918D0290
:1014100070918E02452B462B472B09F4F8C0209182
:101420007502309176022230310509F0F0C020912A
:101430006C022111ECC0FC01C080D180E280F380FD
:1014400080917002882309F4D3C080917C0290912E
:101450007D02892B09F4FDC020917C0230917D0230
:1014600081E02230310509F080E020917C0230914A
:101470007D02C1E02130310549F020917C0230919C
:101480007D02C1E02230310509F0C0E0882309F473
:1014900056C0209186023091870240918802509177
:1014A0008902C701B6010E94172987FD14C0209147
:1014B00086023091870240918802509189026091A2
:1014C00071027091720280917302909174020E9475
:1014D000C82787FD22C02091860230918702409163
:1014E000880250918902C701B6010E941729181677
:1014F00034F5209186023091870240918802509104
:1015000089026091710270917202809173029091D0
:1015100074020E94C827811112C080917E029091AE
:101520007F02A0918002B0918102892B8A2B8B2BA4
:1015300019F481E080936D0281E080936C02CC23EA
:1015400009F456C0209186023091870240918802AA
:1015500050918902C701B6010E94C82787FF14C0B5
:101560002091860230918702409188025091890231
:101570006091710270917202809173029091740275
:101580000E94172987FF22C020918602309187028E
:101590004091880250918902C701B6010E94C82774
:1015A000811126C0209186023091870240918802E5
:1015B0005091890260917102709172028091730260
:1015C000909174020E941729181694F480917E025B
:1015D00090917F02A0918002B0918102892B8A2B89
:1015E0008B2B19F481E080936D0281E080936C0273
:1015F00081E090916C02911180E080937002C09222
:101600007102D0927202E0927302F0927402012B86
:1016100009F067C18091750290917602892BD9F407
:1016200010927B0210926C0280911401882379F051
:1016300082E090E0909376028093750210921401FC
:101640002091790230917A0281E0232BE9F080E049
:101650001BC081E00ACF1092140180917B02882385
:1016600049F010926D02109276021092750210925B
:101670007B02EDCF8091790290917A02892BE1F083
:1016800080916C0210926C0220917502309176026A
:101690002230310509F45EC088F42115310509F4C2
:1016A00048C02130310509F4F3C010926D02109248
:1016B0006C0210927B0238C081E0E6CF2330310506
:1016C00009F4B1C02430310581F74091680250918E
:1016D000690260916A0270916B02411551056105C2
:1016E000710561F041505109610971094093680227
:1016F0005093690260936A0270936B024091680292
:101700005091690260916A0270916B02452B462BE1
:10171000472BD9F42091770230917802213031059E
:1017200009F046C010926D02109276021092750276
:101730000CC080911401882341F082E090E09093E6
:1017400076028093750210921401109266028091C5
:101750006D02CEC08823C9F380917E0290917F02F2
:10176000A0918002B0918102181619061A061B0674
:101770000CF07DC08091790290917A02019709F076
:1017800076C080917E0290917F02A0918002B091FC
:1017900081028093680290936902A0936A02B093D9
:1017A0006B0283E090E09093760280937502CDCF38
:1017B000409182025091830260918402709185026F
:1017C000452B462B472BA9F010926D028091820287
:1017D00090918302A0918402B09185028093680267
:1017E00090936902A0936A02B0936B0281E090E04B
:1017F000DACF882399F08091150190911601A0917C
:101800001701B09118018093680290936902A09328
:101810006A02B0936B0284E090E0C5CF10926D0233
:1018200082E090E0C0CF8091680290916902A0911F
:101830006A02B0916B020097A105B10559F00197BA
:10184000A109B1098093680290936902A0936A028A
:10185000B0936B028091680290916902A0916A0234
:10186000B0916B02892B8A2B8B2B09F06ECF809164
:10187000150190911601A0911701B0911801892BC3
:101880008A2B8B2B09F44ECF81E080936D02B3CF6E
:10189000409168025091690260916A0270916B02F6
:1018A000411551056105710561F04150510961090A
:1018B0007109409368025093690260936A027093C1
:1018C0006B02409168025091690260916A027091C6
:1018D0006B02452B462B472B09F037CF8111C7CF21
:1018E0009FCF80916602882309F431CF80916702EF
:1018F000CF911F910F91FF90EF90DF90CF900895BF
:10190000109271021092720210927302109274027D
:1019100010927002109276021092750210926F026D
:1019200010926E021092900210928F0210926D022D
:1019300010926C02109268021092690210926A0270
:1019400010926B02109267021092660210928B0244
:1019500010928C0210928D0210928E0210928A02C6
:1019600010928602109287021092880210928902C9
:1019700088EE93E0A0E0B0E080931501909316010B
:10198000A0931701B0931801109282021092830263
:10199000109284021092850210927E0210927F02B1
:1019A000109280021092810210927D0210927C02AD
:1019B00081E08093140110927B0210927A021092BF
:1019C0007902109278021092770290E080E00895F8
:1019D0008091790290917A02892B19F580911401F6
:1019E000882351F080917B02811106C081E08093B1
:1019F000670280936602089520917B023091140162
:101A000081E090E0332311F090E080E030E0822329
:101A10009323892B21F01092670281E0EACF109284
:101A20006602089582E090E0FA01918380838FEF4F
:101A30009FEF0895CF93DF93EA01009711F00E9482
:101A4000A41F1982188290E080E0DF91CF91089561
:101A5000DB01009719F48FEF8C9308952EEF2C93F0
:101A60000F968F30910508F033C0FC01E65CF24F11
:101A70000C94A02D660D640D620D600D5E0D5A0D67
:101A80005C0D580D560D540D510D4D0D490D4F0D5A
:101A9000680D80E311968C93089589E2FBCF82E272
:101AA000F9CF11961C92089583E2F4CF81E2F2CF30
:101AB00081E1F0CF87E2EECF8AE2ECCF80E1EACF9E
:101AC00084E2E8CF88E2E6CF86E2E4CF81E3E2CFAA
:101AD00080E2E0CF80919D0290919E0208959093C4
:101AE0009E0280939D02089580919C02089590919A
:101AF0009C02892B80939C020895982F9095809149
:101B00009C02892380939C02089580919B020895F2
:101B10008091990290919A0208956115710559F08A
:101B2000FB0130E020E070E060E02417350719F099
:101B30006115710511F0CB010895A081B181A8173D
:101B4000B90709F4BF012F5F3F4F3696EECF809162
:101B50009F0281111CC062D268D29093920280933E
:101B600091020E94A9170E94BB179093960280933E
:101B700095020E94391C0E94401C9093940280930D
:101B8000930281E080939F0290E080E0089584EFCB
:101B90009FEF08958F929F92AF92BF92CF92DF9264
:101BA000EF92FF920F931F93CF93DF93CDB7DEB7E2
:101BB0002A970FB6F894DEBF0FBECDBF1A861986DE
:101BC00018861F821E821D821C821B821A82198225
:101BD00080919F0207EF1FEF882309F49CC08E01BC
:101BE0000D5F1F4F9E012B5F3F4FAE01495F5F4F5F
:101BF000BE01675F7F4F90E080E00E94B91D8C01BD
:101C0000009721F00596029708F0DBC029853A85F8
:101C10002115310509F402C1ED80FE804B815C8104
:101C2000B701640F751F8F8198858617970708F491
:101C3000F5C0E20EF31ED7019C91903C09F07FC0E5
:101C40004230510508F47BC011968C9140919D0261
:101C500050919E02452B09F49CC0913F08F071C041
:101C60002CE1290F2D3008F48BC02DE2290F2031F3
:101C700008F489C0903C21F48150823008F483C07C
:101C800088E3890F8B3008F481C098E2C92E9DE06B
:101C9000D92EE2E1FDE06D817E81AE014F5F5F4FA5
:101CA00089859A8509955C01C114D104A1F18980C7
:101CB0009A808114910479F18B819C818815990512
:101CC00008F487C010E000E04B815C8170E060E0C8
:101CD000C7010E94C82D01151105E9F449815A81F7
:101CE00069857A858D819E81680F791FC501F6010E
:101CF0000995E980FA800D811E812F8138854985FB
:101D00005A856FEF7FEF81E090E00E94551D8C01B6
:101D1000892B09F056C0C8012A960FB6F894DEBF89
:101D20000FBECDBFDF91CF911F910F91FF90EF902C
:101D3000DF90CF90BF90AF909F908F90089580E0FC
:101D400085CF30E020E0220F331FF901EF56FD4F21
:101D50000190F081E02D309709F497CF892F90E022
:101D60000995009709F491CFDC011296ED91FC9151
:101D700013971496CD90DC90309709F08CCF1FC04C
:101D800021E030E0E0CF22E030E0DDCF23E030E0C2
:101D9000DACFD12CC12CEAE1FDE09F3F09F07BCFE7
:101DA000E0919102F0919202309721F4C90104EF81
:101DB0001FEF0CC08FEF90E009950097A9F604EF94
:101DC0001FEF89859A85009709F4A5CF0E94A41F6B
:101DD000A2CF0E94821E8C0189859A850E94A41F31
:101DE00070E060E0C4010E941B1E98878F830E94F0
:101DF000521D9E838D836F8178856115710559F021
:101E0000C8010E9430219A87898706EF1FEF892B2E
:101E100009F058CF59CF08EF1FEF56CF08EF1FEF4B
:101E2000D0CF20919F02222319F020E00C94C017FC
:101E300087EF9FEF089580919D0290919E020895F3
:101E40000E94451C0E949F1BF5D0E1E9F2E088E06A
:101E5000DF011D928A95E9F710929F0290E080E0E1
:101E600008950C94FC1921E040E050E0BA010C9474
:101E7000C01786E090E0FA019183808390E080E0D3
:101E8000089547E050E06DE371E047CEDF92EF92B6
:101E9000FF920F931F93CF93DF938A01EC01C60F3C
:101EA000D71FE090A302F090A402D9800E946A1E7E
:101EB000D816190678F082E090E0F80191838083CB
:101EC0008EEF9FEFDF91CF911F910F91FF90EF90D9
:101ED000DF900895EF2841F482E090E0F8019183CB
:101EE000808384EF9FEFEECF89818093A20290E000
:101EF0000196F8019183808390E080E0E3CFCF9357
:101F0000DF93EA010E94AD1A882321F00E94771E18
:101F10000E94AE1A82E090E0998388838BEF9FEF56
:101F2000DF91CF910895CF93DF93EB0186E0FB0122
:101F300011928A95E9F78FEF8883D6DD8983E5DDF5
:101F40008A83E6DD9D838C83DF91CF910895CF93C3
:101F5000DF93EA010E94B01A811109C082E090E08B
:101F60009983888385EF9FEFDF91CF91089590E06B
:101F700080E0B5DD81E090E09983888390E080E0A7
:101F8000F3CF0F931F93CF93DF93EA018C01060FDA
:101F9000171F0E94B01A81110BC082E090E0998354
:101FA000888385EF9FEFDF91CF911F910F91089567
:101FB000F8018181823038F082E090E09983888353
:101FC0008EEF9FEFF0CF81E090E089DD88E090E038
:101FD0009983888390E080E0E6CFCF93DF930097EA
:101FE000D1F4EB01FB01329686E0DF011D928A9568
:101FF000E9F78FEF888385E089831A820E946A1E41
:102000008B830E94691E9D838C8381E08E838F83E6
:10201000DF91CF910895DF91CF911ACD81E49FE0B8
:102020009093A1028093A00208958091A0029091C4
:10203000A10208951092A1021092A0020895809129
:10204000A3029091A4020895411105C06115710584
:102050008105910561F06093A3027093A4028093BF
:10206000A5029093A6024093A70281E0089580E024
:102070000895FF920F931F93CF93DF938A01EC0192
:10208000C60FD71FF9800E946A1EF816190668F05D
:1020900082E090E0F801918380838EEF9FEFDF91E3
:1020A000CF911F910F91FF9008956C817D818E815A
:1020B0009F814B81C9DF811108C082E090E0F80167
:1020C0009183808384EF9FEFEACF89818093A2027E
:1020D00090E00196F8019183808390E080E0DFCF6B
:1020E000CF93DF93EA01FC01E60FF71F648175814E
:1020F000868197814381A8DF811109C082E090E049
:102100009983888384EF9FEFDF91CF91089581E0D9
:1021100090E09983888390E080E0F6CFE3EAF2E0F4
:102120004081518162817381480F511D611D711D74
:1021300040835183628373830895CF93C091A20239
:102140004C2F50E06091A3027091A40201960E946E
:10215000BF2D8C2FE3DF1092A202CF91089500973C
:1021600099F48091A3029091A4022FEFFB012083A8
:10217000892B59F02091A20230E02F5F3F4F2417A6
:10218000350719F4CB01D9CF63CC0895009799F4A2
:102190008091A3029091A4022FEFFB012083892B51
:1021A00059F02091A20230E02F5F3F4F24173507EE
:1021B00019F4CB01C2CF4CCC089523E1AC01249F8C
:1021C000C001259F900D1124E091AC02F091AD0269
:1021D000E80FF91F238134812250310981E0223038
:1021E000310508F080E008950F931F93CF93DF939C
:1021F0000091AE021091AF02D0E0C0E080E00C1779
:102200001D0749F491E0811190E0892FDF91CF9172
:102210001F910F9108958111F5CFCE01CEDF219648
:10222000EECFA091AC02B091AD02109729F12091B0
:10223000AE023091AF0282179307F0F453E1589F3A
:102240009001599F300D1124A20FB31FED91FC9105
:102250001197309789F012968C91681768F48DE089
:10226000689FE00DF11D112480819181892B21F05F
:1022700081E09281491708F080E008959C0143E1D4
:10228000429FC001439F900D1124E091AC02F09158
:10229000AD02E80FF91F8385823091F481E090E070
:1022A000658176814091190150911A016417750773
:1022B00011F490E080E0892B19F081E0232B09F0E4
:1022C00080E00895FC01A081B1818DE0689FA00DA0
:1022D000B11D112413964D915C9185859685489F7B
:1022E0009001499F300D589F300D1124C90101966E
:1022F000611103C0478144FD04960895EF92FF9257
:102300000F931F93CF93DF93EA01FC01E60FF71FB2
:1023100002811381E480F5804F2D6E2DC80181DF8D
:1023200081110DC082E090E0998388838EEF9FEF4A
:10233000DF91CF911F910F91FF90EF900895C80109
:102340003CDF882339F082E090E09983888388EF2E
:102350009FEFEECF1093200100931F01E092210127
:10236000F092220181E090E09983888390E080E000
:10237000DFCFCF92DF92EF92FF920F931F93CF9315
:10238000DF937A01EC01C60FD71FC0901F01D090D8
:1023900020010091210110912201412F602FC601DF
:1023A00040DF811110C082E090E0F70191838083CB
:1023B0008AEF9FEFDF91CF911F910F91FF90EF90E8
:1023C000DF90CF900895C601F8DE882341F082E0C7
:1023D00090E0F7019183808388EF9FEFEBCF4C81F2
:1023E0005D816E817F819A8189818F3F41F082E09A
:1023F00090E0F701918380838EEF9FEFDBCFE3E1E5
:10240000EC9D9001ED9D300D1124E091AC02F09116
:10241000AD02E20FF31F0190F081E02D2DE0029F4D
:10242000E00DF11D11240190F081E02D27E0129FB5
:10243000E00DF11D1124808391838B81828343837E
:102440005483658376831F5F1093220181E090E0BF
:10245000F7019183808390E080E0ACCFEF92FF9210
:102460000F931F93CF93DF937A018C01060F171FF1
:10247000C091AC02D091AD02209781F021E030E014
:10248000F801828193814091AE025091AF0284178E
:10249000950710F030E020E0232B71F482E090E00B
:1024A000F701918380838EEF9FEFDF91CF911F9192
:1024B0000F91FF90EF90089543E1489F9001499F4D
:1024C000300D1124C20FD31F78DE882341F082E043
:1024D00090E0F7019183808388EF9FEFE6CFF801CA
:1024E0002481358120383105C8F687818111D6CF06
:1024F0004181842F90E08F7E009741F082E090E050
:10250000F7019183808386EF9FEFCFCF4F833E8388
:102510002D83268128871986223010F421E0288710
:1025200021E030E0F70131832083BFCF88E090E0E5
:10253000FA019183808390E080E00895FB018FEFA2
:10254000808381E181838FEF9FEF9383828380E893
:1025500090E095838483168217820895FB018FEFA4
:10256000808391E0918382839383848384E3858352
:1025700081E090E0978386830895DF92EF92FF9247
:102580000F931F93CF93DF93EA01FC01E60FF71F30
:102590008181813071F082E090E0998388838FEFB0
:1025A0009FEFDF91CF911F910F91FF90EF90DF9000
:1025B000089582819381D4802581E680F7800091FF
:1025C000AC021091AD020115110539F482E090E0E2
:1025D000998388838CEF9FEFE4CF4091AE025091B6
:1025E000AF028417950738F082E090E099838883E2
:1025F0008EEF9FEFD6CF892B39F082E090E0998360
:10260000888386EF9FEFCDCF8D2D8D7FB1F7213061
:10261000A1F781E0D11006C091E0E916F10431F094
:1026200080E004C0E2E0EE16F104D0F3882329F341
:1026300090E080E0C2DD882339F082E090E0998369
:10264000888388EF9FEFADCFF801D38681E0848740
:10265000F686E586108A178681E090E09983888364
:1026600090E080E09ECF4CE050E067E671E055CA14
:102670008F929F92BF92CF92DF92EF92FF920F9331
:102680001F93CF93DF93EA01FC01E60FF71F8281CE
:1026900093810481B580E091AC02F091AD02309756
:1026A00091F482E090E0998388838CEF9FEFDF9133
:1026B000CF911F910F91FF90EF90DF90CF90BF903F
:1026C0009F908F9008952091AE023091AF028217B3
:1026D000930738F082E090E0998388838EEF9FEF34
:1026E000E6CF23E1289F6001299FD00C1124EC0D37
:1026F000FD1DE080F180E114F10499F28281081758
:1027000048F78DE0089F80011124E00EF11EF701CB
:1027100080819181892B29F6BB20E1F2F7E0BF9EF1
:1027200040011124C4010E946B1FF7019183808333
:10273000E091AC02F091AD02EC0DFD1D0190F08135
:10274000E02DE00FF11F80819181009739F482E044
:1027500090E0998388838DEF9FEFA9CFA40170E06B
:1027600060E00E94C82D8091AC029091AD02C80E2D
:10277000D91EF60180819181080F191FF801B282DC
:1027800081E090E09983888390E080E090CFAF92E1
:10279000BF92CF92DF92FF920F931F93CF93DF935D
:1027A000EA01FC01E60FF71F82819381F48000911A
:1027B000AC021091AD020115110581F482E090E0A8
:1027C000998388838CEF9FEFDF91CF911F910F91B9
:1027D000FF90DF90CF90BF90AF9008952091AE0210
:1027E0003091AF028217930738F082E090E099832E
:1027F00088838EEF9FEFE8CF2FEF2F0D2C3FA8F7A8
:1028000023E1289F6001299FD00C11240C0D1D1D70
:10281000F80180819181892B89F6FDE0FF9E5001AE
:102820001124C5010E946B1FF80191838083E09100
:10283000AC02F091AD02EC0DFD1D808191810097FD
:1028400039F482E090E0998388838DEF9FEFBCCFCD
:10285000A50170E060E00E94C82DE091AC02F0910B
:10286000AD02EC0DFD1DF28281E090E0998388833A
:1028700090E080E0A9CFCF92DF92EF92FF920F938A
:102880001F93CF93DF93860F971FFC010281138163
:102890008091AC029091AD02892B81F082E090E0B2
:1028A000FA01918380838CEF9FEFDF91CF911F918D
:1028B0000F91FF90EF90DF90CF900895C801B0E0A6
:1028C000A0E00197A109B1098F3F9F4FA105B10574
:1028D00040F082E090E0FA01918380838EEF9FEFD9
:1028E000E4CF7A0183E1809F6001819FD00C1124A5
:1028F000C6010E946B1FEC01009741F482E090E05A
:10290000F701918380838DEF9FEFCFCFA60170E019
:1029100060E00E94C82DD093AD02C093AC0210932A
:10292000AF020093AE0290E080E02FEF3FEF41E076
:1029300061E070E08017910741F481E090E0F701D9
:102940009183808390E080E0B0CF3A8B298B1B8607
:102950004C877E876D87188A1F8601966396EACF1B
:10296000EF92FF921F93CF93DF93EC0110E0F12CD5
:10297000E12C6A811617A8F070E0660F771FAE0190
:102980004F5E5F4FC7010E94D01F009721F02FEFCD
:102990003FEF3A8B298BDF91CF911F91FF90EF9002
:1029A0000895612FCE018EDC61E070E00E941B1E55
:1029B000E816F90608F47C011F5FDBCFF89420913C
:1029C000AA023091AB0281E02115310509F080E0C7
:1029D000232B09F0789408952F923F924F925F92A3
:1029E0006F927F928F929F92AF92BF92CF92DF921F
:1029F000EF92FF920F931F93CF93DF933C01660EEC
:102A0000771EF301828193814C01B12CA12CC091DE
:102A1000AC02D091AD02209769F021E030E06091E6
:102A2000AE027091AF028617970710F030E020E0F9
:102A3000232BD1F482E090E0FA01918380838EEF22
:102A40009FEFDF91CF911F910F91FF90EF90DF905B
:102A5000CF90BF90AF909F908F907F906F905F903E
:102A60004F903F902F9008958092230190922401DF
:102A7000A0922501B092260163E1689F9001699FB1
:102A8000300D1124C20FD31FF3018181833040F038
:102A900082E090E0FA019183808386EF9FEFD1CFAF
:102AA0002A012B813C81232BF1F4288139819F81DC
:102AB00091FF2EC0232B09F46FC02091B1029A819F
:102AC000422F490F5527551FBA0141E050E06138A8
:102AD000710514F050E040E0452B09F45DC02A87F1
:102AE000920F9093B1028150823008F481C066DF6A
:102AF000882309F4D8C0F3018181813009F48DC0A5
:102B000008F47BC0823009F4C6C090E080E0ADC01C
:102B1000232B09F441C02091B0029A81E22FE90FE2
:102B2000FF27FF1F41E050E0ED3FF10514F050E0BA
:102B300040E0452B89F12A87920F9093B002D3CFC2
:102B4000A081B181A20FB31F11966C91060F111DC8
:102B50000196295F3F4F8417950794F38D859E85D5
:102B6000089F1001099F300C189F300C1124C114CC
:102B7000D104D1F48F8184FF17C00E94691EF5E053
:102B80002F0E311C21E08215930508F420E0A701E7
:102B9000435F5F4F21110EC082E090E0F20191830C
:102BA000808387EF9FEF4DCF0E94691E2FEF221A7F
:102BB000320AE8CF88819981E80EF91EF701148363
:102BC0000383FFEFCF1ADF0A7A018A818C151D0477
:102BD00009F00CF48CCFE881F981EE0DFF1D4281E4
:102BE00050E030E020E010E000E090E080E0B3CF83
:102BF000F12CE12CD12CC12CE8CF81E090E09C831A
:102C00008B83F2DA882309F480CF81E090E00E9480
:102C10006F0D80E40E947D0D78CF89899A89019695
:102C200061F083E090E09C838B8382E090E00E94DF
:102C30006F0D80E40E94770D68CF8D819E81209179
:102C4000190130911A0182179307D1F460911D0187
:102C500070911E01AE014F5E5F4F80911B019091FC
:102C60001C010E94EF200097E1F2789422E030E00E
:102C7000F20131832083892B99F08DEF9FEFE1CE14
:102C800089288A288B2869F6029758F6CE0168DED3
:102C9000188A1F86E8CF82E090E09C838B8335CF33
:102CA00090E080E0CECE82E090E0F20191838083DC
:102CB00085EF9FEFC6CE8F929F92AF92BF92CF9239
:102CC000DF92EF92FF920F931F93CF93DF93EA016E
:102CD0008C01060F171FF8018181833098F082E084
:102CE00090E09983888386EF9FEFDF91CF911F91CA
:102CF0000F91FF90EF90DF90CF90BF90AF909F909B
:102D00008F9008958091AC029091AD02892B61F073
:102D100081E090E02091AE023091AF02232B11F4BC
:102D200090E080E0892B39F482E090E099838883F9
:102D30008EEF9FEFDACF42DE882309F4E0C0F8017E
:102D40008181813009F496C0E8F0823099F42091B5
:102D5000AE023091AF02E091AC02F091AD0290E092
:102D600080E041E050E02817390709F0BEC03CDAA6
:102D7000811117C0789481E090E09983888390E076
:102D800080E0B3CF2091AE023091AF02E091AC026F
:102D9000F091AD0290E080E041E050E02817390763
:102DA00041F481E090E00E946F0D80E40E947D0D6F
:102DB000E1CF63817481672B11F0548343830196C3
:102DC0007396ECCFE091AC02F091AD02E00FF11FF1
:102DD0002381348122303105D9F4218932892F3F72
:102DE0003F4FB1F4258136814091190150911A016C
:102DF0002417350761F5AF014F5E5F4F60911D01EC
:102E000070911E0180911B0190911C010E94EF2086
:102E1000EFEFCE1ADE0AEE0AFE0A0D5E1F4F40915A
:102E2000AE025091AF0270E060E0C416D506E6062F
:102E3000F70644F5009731F27894892B09F49BCF7B
:102E400082E090E0998388838DEF9FEF4ECFC1148D
:102E5000D104E104F104E1F622303105C8F6CF01D6
:102E60007FDDE091AC02F091AD02E00FF11F108A1E
:102E70001786CECF10E000E090E080E0C12CD12C8E
:102E80007601CDCF0097C1F610E000E0812C912CA7
:102E9000540183E0E82EF12C1AC0E091AC02F091CD
:102EA000AD02E00FF11F83819481029749F4F4820F
:102EB000E38282E090E00E946F0D80E40E94770D33
:102EC000FFEF8F1A9F0AAF0ABF0A0D5E1F4F809156
:102ED000AE029091AF02B0E0A0E088169906AA0673
:102EE000BB06DCF290E080E0A7CF638174816230A2
:102EF000710511F4548343830196739634CF82E0B5
:102F000090E09983888385EF9FEFEFCE0097B9F427
:102F10008FEFFB018083209123013091240143E155
:102F2000429FC001439F900D1124E091AC02F091AB
:102F3000AD02E80FF91F8285FB01818308950C948F
:102F4000280D88E090E0FA019183808390E080E092
:102F500008951092AB021092AA02ECEAF2E086E029
:102F6000DF011D928A95E9F783E393E19093A9022B
:102F70008093A80208958091A8029091A9020895D3
:102F80002F923F924F925F926F927F928F929F9279
:102F9000AF92BF92CF92DF92EF92FF920F931F9367
:102FA000CF93DF93CDB7DEB72F970FB6F894DEBF80
:102FB0000FBECDBFF894E091AA02F091AB0231961A
:102FC000F093AB02E093AA0278944090AC02509048
:102FD000AD024114510409F40CC2E091AE02F0912B
:102FE000AF02EF2B09F405C22D8749875A876B87FB
:102FF0007C8798878F831201B12CA12C10E000E010
:103000008091AE029091AF02A816B90618F401158E
:10301000110529F1F8948091AA029091AB020197D1
:103020009093AB028093AA027894C8012F960FB6B2
:10303000F894DEBF0FBECDBFDF91CF911F910F91EE
:10304000FF90EF90DF90CF90BF90AF909F908F90C8
:103050007F906F905F904F903F902F9008957101F7
:10306000E418F508D10117968C91179781FD54C08B
:1030700013968D919C911497039709F04DC0159666
:103080008D919C91EF81F8858E179F0709F044C0C0
:10309000B50190E080E07ED48A832091AC0230912B
:1030A000AD023D832C833D85332309F44CC04C8114
:1030B0005D81452B09F49AC18091AE029091AF02D7
:1030C000A816B90608F092C1C501D8D88823E9F03E
:1030D0006C817D816E0D7F1D7D836C83DB011F966E
:1030E0008D919C91892B89F0D12CC12CF12CE12C54
:1030F000AC81BD8112968C9112978E151F0409F038
:1031000094F450961C921E921F972A81222321F03C
:10311000B50190E080E040D43FEFA31AB30A43E149
:10312000240E311C6DCFAC81BD81ED91FC91EC0D75
:10313000FD1D8581968108D7BFEFEB1AFB0AEDE0F4
:10314000CE0ED11CD5CFEC81FD81309709F44EC154
:103150008091AE029091AF02A816B90608F046C160
:10316000EE0DFF1DFF87EE87C50188D88B8388236E
:1031700039F1AE85BF851F968D919C915097019630
:1031800021E01D964D915C918417950709F020E090
:103190002E831982712C10E000E0AE85BF85129657
:1031A0008C91781608F45DC0EE85FF85878590893F
:1031B0000196658576850E946A2D908B8787A5CFBD
:1031C000B1E0BE83E6CF992493946BC084D6F60118
:1031D0009683858382C0D601ED90FC90B7E06B9E0C
:1031E000E00CF11C1124F7016381748180818F3F11
:1031F00061F121E030E002C0220F331F8A95E2F72F
:10320000C901092E000CAA0BBB0BFB0140815181A7
:103210006281738184239523A623B72321E0892B20
:103220008A2B8B2B09F420E0D4012C93D701119623
:103230008C91F60123853485820F932F911D880E82
:10324000991E1486138663949BC0418150E0C4018B
:103250000E94BF2DEBCF998206EF1FEFC5C01982E8
:10326000C3C0F981F111A0CFEDE07E9E7001112461
:10327000AE85BF85CD90DC90CE0CDF1C13D49D8332
:103280008C83BB81BB2309F49ECF81E0EE85FF8553
:1032900027853089232B09F080E0982E882309F4B4
:1032A00058C0672D8E859F850DD8D60118969C93A2
:1032B0008E93179761E070E0BED4EE85FF8521897B
:1032C00032892F3F320709F481CFBC01C901C8D729
:1032D000D60116969C938E931597D60115968D91CF
:1032E0009C911697009709F4B6CFEC81FD818E0F63
:1032F0009F1F1A969C938E931997AE85BF85ED916B
:10330000FC911197EE0EFF1EF70121853285148680
:1033100013861A968C91870DD9018D93711016C062
:10332000EE85FF85878184FF11C049855A856B85AD
:103330007C85F9014183528363837483F70183851C
:1033400094850496A80FB91F14861386F701B287D7
:10335000A187D60115968D919C911697892B09F41A
:1033600043C0EE85FF8525813681809119019091BA
:103370001A012817390779F019968D909C90612CC5
:10338000D60112968C911297681608F424CF1A96DB
:103390009C928E921997BE81BB2309F460CF61E0A5
:1033A00070E0F6018781908546D4D6011796ED909E
:1033B000FC90189715964D915C91E1E0F0E0BA8190
:1033C000BB2311F0F0E0E0E00C811D819C01B50110
:1033D000882799278E1B9F0B68D38C01892B21F09E
:1033E000F60185819681B0D57394D7CE0FEF1FEF8C
:1033F0008CCE10E000E00ECE2F923F924F925F9263
:103400006F927F928F929F92AF92BF92CF92DF92F4
:10341000EF92FF920F931F93CF93DF938091AC02B3
:103420009091AD0210E000E0892BA9F0C7DA0AEF15
:103430001FEF882381F02090AE023090AF02C09140
:10344000AC02D091AD02D12CC12C10E000E02C14C4
:103450003D04A9F47894C801DF91CF911F910F9199
:10346000FF90EF90DF90CF90BF90AF909F908F90A4
:103470007F906F905F904F903F902F900895C6017E
:103480000E943E11882309F18B819C810397E9F406
:103490008F859889892BC9F0B60190E080E07AD2B7
:1034A00021E030E0882311F030E020E0442455246E
:1034B000421A530AB12CA12C912C812C8A81881597
:1034C000190409F038F4188A1F864FEFC41AD40A79
:1034D0006396BDCFE881F981EA0DFB1D8581968158
:1034E000892BA1F161E070E087819085A4D33C0134
:1034F000D9D28C01E881F981EA0DFB1D8185928585
:1035000025813681200F311FAC01421B530B9A01DC
:1035100047815085421B530B70E060E00E94C82D2C
:10352000E881F981EA0DFB1DE780F0844581568131
:103530009301B601C201B9D28C01892B39F0E8811F
:10354000F981EA0DFB1D85819681FED45FEF851A16
:10355000950A8DE0A80EB11CB1CF30CA78940895B9
:103560002F923F924F925F926F927F929F92AF9273
:10357000BF92CF92DF92EF92FF920F931F93CF9360
:10358000DF9300D000D000D0CDB7DEB70091AC0201
:103590001091AD02992493940115110509F43EC0D0
:1035A000A090AE02B090AF0209DA982E8823B1F154
:1035B0001092AD021092AC021092AF021092AE02C5
:1035C0001092B0021092B1028FEF9FEFDC01809356
:1035D000230190932401A0932501B09326017894B0
:1035E0007AD31E830D83C12CD12C7601C501B0E0A6
:1035F000A0E089839A83AB83BC8322242A94322C53
:1036000089819A81AB81BC81C816D906EA06FB067E
:10361000F4F0C80199D480E40E947D0D892D26968E
:103620000FB6F894DEBF0FBECDBFDF91CF911F91D3
:103630000F91FF90EF90DF90CF90BF90AF909F9051
:103640007F906F905F904F903F902F900895AD8145
:10365000BE8115968D919C911697209119013091FC
:103660001A0182179307D1F451968D919C91E6D55A
:10367000ED81FE8180819181B12CA12C412C512CB6
:103680003201892B89F5BFEFCB1ADB0AEB0AFB0A63
:10369000ED81FE817396FE83ED83B2CFC114D10418
:1036A000E104F10429F7029718F7ED81FE81818981
:1036B00092898F3F980709F021D5AD81BE8152963E
:1036C0003C922E925197D4CF8A0D9B1DDC018D9197
:1036D0009C91009709F038D4BFEF4B1A5B0A6B0A34
:1036E0007B0AEDE0AE0EB11CAD81BE818D919C9147
:1036F000119712964C9150E070E060E04416550628
:10370000660677060CF320D4BECFCF93DF93EA0191
:1037100027DF811109C082E090E09983888385EFDB
:103720009FEFDF91CF91089581E090E00E946F0DAF
:1037300081E090E09983888390E080E0F2CF10DF11
:103740001092A9021092A802089542E050E06FEA98
:1037500071E00C948D0DFF920F931F93CF93DF9325
:103760008A01EC01C60FD71FF980B4D20897F8166A
:10377000190671F068F082E090E0F801918380838F
:103780008EEF9FEFDF91CF911F910F91FF900895E2
:103790006C817D818E819F814B810E9424108111DB
:1037A00008C082E090E0F8019183808384EF9FEF6E
:1037B000E9CFF9800E941F104F2D50E0BE01685FD5
:1037C0007F4F0E94BF2D89810E948E1081E090E082
:1037D000F8019183808390E080E0D4CFDF92EF9274
:1037E000FF920F931F93CF93DF938A01EC01C60FD3
:1037F000D71F0E941F107C01D9806CD2DD2059F0A8
:10380000029721E030E0D816190619F010F030E0E8
:1038100020E0232B79F482E090E0F801918380830B
:103820008EEF9FEFDF91CF911F910F91FF90EF905F
:10383000DF900895EF2841F482E090E0F801918351
:10384000808384EF9FEFEECFF9800E941F104F2DF1
:1038500050E0BE016E5F7F4F0E94BF2D89810E94A4
:103860008E1081E090E0F8019183808390E080E009
:10387000D9CF85EA9BE19093B3028093B202089579
:103880008091B2029091B30208950895FC011182D3
:103890001082938382830895DB011D921C92DC01C8
:1038A0001296ED91FC9113977183608313967C932C
:1038B0006E9312970895FC0180819181DB018D93B5
:1038C0009C93A081B181109741F08D919C9191833F
:1038D0008083892B11F4F383E2830895FC018081B6
:1038E0009181DB018D939C93892B11F47383628307
:1038F000718360830895FC01118210829383828317
:103900000895CF93DF9300D0CDB7DEB71A82198226
:10391000F894BE016F5F7F4F89EB92E0CCDF898125
:103920009A81009709F010D389819A81892B89F7B0
:10393000BE016F5F7F4F8DEB92E0BDDF89819A8181
:10394000009709F001D389819A81892B89F77894AE
:103950000F900F90DF91CF910895CF93DF9300D018
:10396000CDB7DEB71A821982F894BE016F5F7F4F20
:1039700085EB92E0A0DF89819A81009709F0E4D27B
:1039800089819A81892B89F778940F900F90DF9124
:10399000CF91089581E0089590E080E00895EF923E
:1039A000FF920F931F93CF93DF9300D0CDB7DEB775
:1039B0001A8219828091B40207EF1FEF8823A1F1C8
:1039C000F894BE016F5F7F4F8DEB92E074DF7894C7
:1039D00089819A81EE24E394F12C892B51F4F89497
:1039E000BE016F5F7F4F89EB92E065DF7894F12C29
:1039F000E12C89819A810EEF1FEF0097A9F0FC015D
:103A00004281538164E070E06AD68C01892B61F0B9
:103A1000F89469817A81C701880F991F880F991FCF
:103A200087549D4F5BDF7894C8010F900F90DF9112
:103A3000CF911F910F91FF90EF9008950F931F93D7
:103A4000CF93DF9300D000D0CDB7DEB71C821B82AE
:103A50001A8219828091B40207EF1FEF8823C1F008
:103A6000AE014D5F5F4F64E070E0CE010196AAD6D3
:103A70008C01892B69F4E981FA818B819C81938384
:103A80008283F89469817A8185EB92E005DF7894EE
:103A9000C8010F900F900F900F90DF91CF911F9161
:103AA0000F910895AFD7049608958F929F92AF9289
:103AB000BF92CF92DF92EF92FF920F931F93CF931B
:103AC000DF9300D0CDB7DEB71A821982BC016F5FD9
:103AD0007F4F6330710598F0AA24AA94BA2CC501CF
:103AE0000F900F90DF91CF911F910F91FF90EF906A
:103AF000DF90CF90BF90AF909F908F900895411529
:103B0000510551F3480159018A016C01CBDF881539
:103B1000990511F7E114F104F9F28E0D9F1DA81615
:103B2000B906D0F28091B4028823F1F0F894B5017F
:103B3000645071099701AE014F5F5F4FC801049651
:103B4000D6D65C01892B71F489819A81F80193831F
:103B50008283C601880F991F880F991FB801875467
:103B60009D4F9ADE7894BBCF87EFA82EBB24BA94E2
:103B7000B6CFAF92BF92CF92DF92EF92FF920F93A8
:103B80001F93CF93DF9300D0CDB7DEB71A8219828F
:103B9000892B09F047C06115710509F443C041152F
:103BA000510509F43FC02115310509F43BC0011549
:103BB0001105C1F18091B4028823B9F179016A013C
:103BC0005B01F894BE016F5F7F4F85EB92E073DE7F
:103BD000789489819A81009759F1DC0112966D9150
:103BE0007C91A80104969CD68C01E981FA81D501CB
:103BF000ED93FC93828193810496F60191838083F7
:103C000051DFD7018D939C93C8010F900F90DF91E6
:103C1000CF911F910F91FF90EF90DF90CF90BF90C9
:103C2000AF9008950FEF1FEFEFCF07EF1FEFECCF2F
:103C30000EEF1FEFE9CFCF93DF93EC01672B71F409
:103C4000EAD68C179D0760F0DDD62496C80FD91FE1
:103C5000DCD68C0F9D1FDF91CF910895D9D6F1CF7F
:103C600090E080E0F8CF0F931F93CF93DF932091E4
:103C7000B40221112BC08B01EC0189EB92E006DE2E
:103C80008DEB92E003DE85EB92E000DE97D00097AB
:103C9000C1F4C1D670E060E0CEDF47E251E062E0FF
:103CA00070E07ED1009769F48091270190912801FE
:103CB000C4D6B801CE01F9D4009719F421E02093BD
:103CC000B402DF91CF911F910F91089584EF9FEF80
:103CD000F8CF9EC6A0C6CF93DF93A0D6EC01892B68
:103CE00011F40FDE3ADECE01DF91CF910895CF932C
:103CF000DF9394D6EC01892B09F403DECE01DF912A
:103D0000CF91089580912701909128010895CF9334
:103D1000DF938091B402D0E0C0E08823D1F092D646
:103D2000EC01892BB1F4EDDD18DE80912701909133
:103D30002801E4D1E5D2EC01892B59F489EB92E01A
:103D4000DADD8DEB92E0D7DD85EB92E0D4DD1092E9
:103D5000B402CE01DF91CF910895EF92FF920F93BD
:103D60001F93CF93DF93EC017A018B010F5F1F4FFD
:103D70000E9DA0010F9D500D1E9D500D112470E051
:103D800060E00E94C82D90E080E0F0E0E0E02FEFDE
:103D9000E816F90639F4DF91CF911F910F91FF904A
:103DA000EF9008951A8219822883309711F0D283F8
:103DB000C1830196FE01C00FD11FEACFCF92DF92DF
:103DC000EF92FF920F931F93CF93DF930BE913E0D2
:103DD0000C7F43E050E069E271E08FE291E012D4A1
:103DE00089E2E82E81E0F82E9FE2C92E91E0D92EDB
:103DF000C2E1D4E0D7014D915D917D01F601619161
:103E000071916F01198308835D834C835B834A83BF
:103E10007F836E839B012F5F3F4F249FC001259FAF
:103E2000900D349F900D11249987888701151105F5
:103E300011F0C80192DF88859985080F191F2A960D
:103E4000FFE2EF16F1E0FF06A9F6E3ECF2E085ED04
:103E5000DF011D928A95E9F71092C2021092C10209
:103E600010923104109230041092350410923404F0
:103E700010923304109232041092370410923604D8
:103E8000109239041092380410923B0410923A04B4
:103E900010923F0410923E0410923D0410923C0494
:103EA0001092410410924004109243041092420474
:103EB00010920F0410920E0410921104109210042C
:103EC00090E080E0DF91CF911F910F91FF90EF90F4
:103ED000DF90CF9008950097F1F0F894AFE2B1E051
:103EE000E2E1F4E030E020E04D915D9148175907A0
:103EF000A8F0428153814115510581F08AE0829FEB
:103F0000F001839FF00D1124EE5EFB4F80819181C3
:103F1000009759F4789490E080E008952F5F3F4F28
:103F20003A962330310501F7F5CFDC0111966D91FA
:103F30007C91718360834150510953834283FC011A
:103F40002193CF0178940895009749F1DC018E9177
:103F5000853041F4E0911004F09111043097F9F0AC
:103F6000CD0109948530D8F4282F30E0F8948FEFF4
:103F70008C938AE0829FF001839FF00D1124EE5E06
:103F8000FB4F8081918112969C938E931197B18300
:103F9000A08382819381019693838283789408958C
:103FA000CF92DF92EF92FF920F931F93CF93DF9305
:103FB0009C0186EC92E08C7F4115510509F49BC071
:103FC0002115310509F497C06115710509F493C0F5
:103FD0007A01AB01B9016D5F7F4F6C7F9B012F5F51
:103FE0003F4F249F8001259F100D349F100D1124F9
:103FF000F8942091300430913104232B59F420910E
:104000003804309139042115310569F12017310741
:1040100008F058C020913A0430913B04232B91F4CE
:104020002091380430913904820F931F209142046B
:10403000309143042115310509F441C0201731079F
:1040400008F056C07894CFEFDFEF86EF9FEFF701CF
:10405000D183C083DF91CF911F910F91FF90EF909B
:10406000DF90CF900895C3E0D0E0C090C102D0901F
:10407000C20222ED30E02C193D092017310710F360
:104080002AE02C9FF0012D9FF00D1124EE5EFB4FD6
:1040900091838083558344835383428377836683EC
:1040A00011870087009709F058DE0C0D1D1D109335
:1040B000C2020093C102789490E080E0C8CFC4E0CF
:1040C000D0E0D3CFC3E0D0E02AE02C9FF0012D9FB9
:1040D000F00D1124EE5EFB4F918380835583448362
:1040E0005383428377836683009729F336DEE3CFD9
:1040F000C4E0D0E0E9CF8FEF9FEFACCF9C010397F6
:10410000029708F069C0F89484E09AE0482F50E0E4
:10411000241735070CF44DC091E08AE0829FF0012E
:10412000839FF00D1124EE5EFB4F118210821582E9
:10413000148213821282178216829923B1F1809120
:10414000300490913104892BA9F4209138043091E6
:1041500039042115310571F08091C1029091C2029C
:10416000821B930B9093C2028093C1021092390478
:104170001092380480913A0490913B04892BA9F461
:1041800020914204309143042115310571F0809152
:10419000C1029091C202821B930B9093C202809342
:1041A000C1021092430410924204789490E080E09F
:1041B0000895949FF001959FF00D1124EE5EFB4F42
:1041C00040815181452B31F440855185452B11F4B7
:1041D00081509CCF90E0A1CF8FEF9FEF08954115C4
:1041E000510549F1009739F16115710521F1F894F4
:1041F00020910E0430910F04232BB9F42091100468
:1042000030911104232B89F490930F0480930E04B2
:104210007093110460931004789425E030E090E0EE
:1042200080E0FA0131832083089578942FEF3FEFE7
:1042300086EF9FEFF6CF8FEF9FEF0895059769F414
:10424000F89410920F0410920E0410921104109220
:104250001004789490E080E008958FEF9FEF089528
:104260006115710519F4F0E0E0E011C085309105A9
:1042700081F4E0910E04F0910F043097A1F3CB018B
:1042800001960995009779F3FC0185E08193CF01B0
:1042900008959C01235031092230310520F72AE08E
:1042A000289FD001299FB00D1124AE5EBB4F2D91E8
:1042B0003C911197232BB9F216962D913C911797AB
:1042C0002617370780F2F89412962D913C91139798
:1042D0002115310529F0ED91FC911197309711F4DA
:1042E0007894C1CF4181528111965C934E932150B5
:1042F000310913963C932E93129781937894C7CFEC
:10430000E8E9F3E086E7DF011D928A95E9F7E3EC3F
:10431000F2E085EDDF011D928A95E9F71092C20265
:104320001092C102E2E1F4E082E3DF011D928A957E
:10433000E9F7EEE0F4E084E0DF011D928A95E9F709
:1043400090E080E00895CF93DF93C0913501D09144
:104350003601CF3FDC0759F407D4909336018093A0
:10436000350197FF09C0D0933601C093350184EF22
:104370009FEFDF91CF91089590E080E0FACF8230F7
:10438000910528F48093440490E080E008958FEF35
:104390009FEF08954F925F926F927F92AF92BF927C
:1043A000CF92DF92EF92FF920F931F93CF93DF9301
:1043B00000D0CDB7DEB71A821982009709F478C011
:1043C0006115710509F474C02091350130913601F1
:1043D00007EF1FEF2F3F3F4F09F444C06B015C0113
:1043E000412C512C3201F12CE12C10E000E09E0117
:1043F0002F5F3F4FA6014E195F09B5016E0D7F1D5E
:1044000080913501909136010ED4892B09F04AC074
:1044100089819A81009741F4E114F10429F42091F3
:104420004404222309F441C0E80EF91EEC14FD04F3
:10443000C8F480E8481684E858068EE168067104DE
:1044400018F560E070E0CB01C8D72AE0420E511C9D
:10445000611C711C0A3F4FEF140721F0043F8FEFDE
:104460001807A1F4C8010F900F90DF91CF911F9111
:104470000F91FF90EF90DF90CF90BF90AF907F9023
:104480006F905F904F90089501EF1FEF81E090E0F3
:10449000013F2FEF120711F090E080E0892B09F423
:1044A000A6CFE0CF04EF1FEFDDCF0AEF1FEFDACF8B
:1044B0000FEF1FEFD7CF4F925F926F927F92AF9225
:1044C000BF92CF92DF92EF92FF920F931F93CF9301
:1044D000DF9300D0CDB7DEB71A821982009709F4B6
:1044E00078C06115710509F474C0209135013091CF
:1044F000360107EF1FEF2F3F3F4F09F444C06B0118
:104500005C01412C512C3201F12CE12C10E000E037
:104510009E012F5F3F4FA6014E195F09B5016E0D39
:104520007F1D809135019091360133D3892B09F09D
:104530004AC089819A81009741F4E114F10429F479
:1045400020914404222309F441C0E80EF91EEC1422
:10455000FD04C8F480E4481682E458068FE068063B
:10456000710418F560E070E0CB0137D72AE0420E05
:10457000511C611C711C0E3F4FEF140721F0043FCA
:104580008FEF1807A1F4C8010F900F90DF91CF9122
:104590001F910F91FF90EF90DF90CF90BF90AF9061
:1045A0007F906F905F904F90089502EF1FEF81E032
:1045B00090E0023F2FEF120711F090E080E0892B8E
:1045C00009F4A6CFE0CF04EF1FEFDDCF0EEF1FEF12
:1045D000DACF0FEF1FEFD7CF8091350190913601E1
:1045E0008F3F980749F0B8D2892B49F48FEF9FEF9E
:1045F000909336018093350190E080E0089584EF38
:104600009FEF0895CF92DF92EF92FF920F931F9347
:10461000CF93DF9321E04115510509F020E041508F
:10462000510921112CC0DC01FB01D12CC12C21E04E
:1046300022C03FEFC31AD30A7D010D911D91E701FE
:10464000EA80FB80E016F106A8F420813181E28047
:10465000F380F182E08233832283ED90FC90119706
:104660009D0122503109E901F982E88211961C93DB
:104670000E9320E03296C416D506D8F2D2CFDF9141
:10468000CF911F910F91FF90EF90DF90CF90089501
:10469000FC01680F791F90E080E0E617F70709F446
:1046A00008952191820F911DF8CF20914504211189
:1046B00013C049DE009791F410924B0410924A0403
:1046C0001092490410924804109247041092460434
:1046D00021E020934504089584EF9FEF0895AF9261
:1046E000BF92CF92DF92EF92FF920F931F93CF93DF
:1046F000DF93009709F460C04630510508F45CC0B0
:1047000020914504C7EFDFEF222309F449C08C0153
:10471000060F171FF801C080D180C114D10409F41D
:104720004EC096012A5F3F4F4217530708F447C017
:104730007C0180914A0490914B0493838283B6015B
:104740006C5F7F4F5801A60EB71EC801A1DFF501AF
:104750009183808364E070E0C8011CDEEC01892B4A
:10476000F9F481E090E00BDEB601C801049612DE98
:10477000EC01892B91F462E070E0C5010BDEEC01E5
:10478000892B59F4C701E0DB80914A0490914B04D6
:10479000019690934B0480934A0490E080E0EFDD13
:1047A000CE01DF91CF911F910F91FF90EF90DF909D
:1047B000CF90BF90AF900895CFEFDFEFF1CFC9EF6B
:1047C000DFEFEECF6F927F928F929F92AF92BF9268
:1047D000CF92DF92EF92FF920F931F93CF93DF93CD
:1047E00000D000D0CDB7DEB7009709F47AC04115EC
:1047F000510509F476C02091450407EF1FEF2223ED
:1048000009F44DC03A017B015C0164E070E0CE0127
:10481000019651DE8C01892B09F041C009811A8172
:104820000115110509F45AC0480186E0880E911C53
:10483000B701680D791D809137019091380110DD25
:104840006C01009709F450C0A70170E060E00E947D
:10485000C82D89819A81AB81BC81EC0CFD1CF701CC
:1048600081939193A193B1937F0181E090E087DDE3
:10487000B801C70120DE892B31F562E070E0C70185
:10488000800F911F18DE8C01892BE9F490E080E005
:1048900076DDF501D182C082F30191828082C80168
:1048A0000F900F900F900F90DF91CF911F910F916C
:1048B000FF90EF90DF90CF90BF90AF909F908F9040
:1048C0007F906F90089590E080E059DDF5011182AE
:1048D0001082F30111821082C60136DB09EF1FEF4F
:1048E000DECF0FEF1FEFDBCF06EF1FEFD8CF009724
:1048F000A1F04115510589F02115310571F0F9013B
:1049000036966E177F0748F0DC012D933C93DA0151
:10491000ED93FC9390E080E008958FEF9FEF089572
:10492000AF92BF92CF92DF92EF92FF920F931F93BD
:10493000CF93DF93009709F45FC04115510509F447
:104940005BC06530710508F457C020914504C7EF7E
:10495000DFEF222391F1DC01CD90DC9011971296CC
:10496000ED91FC9196012A5F3F4FC9EFDFEF2617CB
:10497000370719F5C0914604D0914704209749F5AF
:1049800021E030E030934704209346047A018C0103
:10499000F0934904E09348045601B4E0AB0EB11C17
:1049A000B50176DE0A0D1B1DF801208131818217C9
:1049B000930729F5D701CD92DC92CE01DF91CF91FB
:1049C0001F910F91FF90EF90DF90CF90BF90AF902D
:1049D000089520914804309149042F5F3F4FCCEF58
:1049E000DFEFE217F30790F2CBEFDFEF2E173F0771
:1049F00068F2D0E0C0E0CACFCFEFDFEFDECFC3EF89
:104A0000DFEFDBCF84E090E0089582E090E008954E
:104A10008CEF9FEF089580E290E0089510924B0490
:104A200010924A04109249041092480410924704CC
:104A30001092460490E080E00895909338018093AE
:104A40003701089580914504882391F0C5DD0097D2
:104A500089F410924B0410924A0410924904109267
:104A60004804109247041092460410924504089599
:104A700090E080E00895009749F06115710531F0EC
:104A8000FC0111821082FB01118210820895F3CF84
:104A900026E030E040E855E260E070E090E080E041
:104AA00000C0892B19F48CE594E002C708951F9289
:104AB0000F920FB60F9211242F933F934F935F9352
:104AC0006F937F938F939F93AF93BF93EF93FF93D6
:104AD00086E09FEF9093850080938400B7D0FF918C
:104AE000EF91BF91AF919F918F917F916F915F9166
:104AF0004F913F912F910F900FBE0F901F901895DF
:104B000086E09FEF9093850080938400AFE6B0E04D
:104B10008C918E7F8C93E0E8F0E080818C7F8083A5
:104B2000E1E8F0E08081877E8083808183608083FC
:104B300080818B7F80838C9181608C930895EFE6D8
:104B4000F0E0808190819E7F90838170089581E064
:104B5000089510924C04089568EE73E080E090E0B0
:104B60003CD490E080E0089526E030E040E052EC54
:104B700061E070E090E080E094DF8CE594E0CED5D9
:104B8000892B21F08CE594E0E3D5F7CF90E080E02D
:104B90000895CF92DF92EF92FF920F931F93CF93DE
:104BA000DF936B017A01E901198218828CE594E0A8
:104BB000B5D5892B69F18601CC24C39482E0D82E27
:104BC00080914C04811110C08CE594E0C1D502970E
:104BD000B9F7C0924C04F801D1928F018881998174
:104BE000019699838883ECCF888199818E159F05E2
:104BF00078F48CE594E0ACD58F3F9807A9F3F801E1
:104C000081938F0188819981019699838883ECCF64
:104C100090E080E0DF91CF911F910F91FF90EF9096
:104C2000DF90CF9008950F931F93CF93DF93EA0106
:104C300089018CE594E020D7F801D183C08390E00E
:104C400080E0DF91CF911F910F910895CF92DF9275
:104C5000EF92FF920F931F93CF93DF9300D0CDB7C6
:104C6000DEB780914F0491E0980F90934F04882312
:104C700099F021E030E03093520420935104809366
:104C80004F040F900F90DF91CF911F910F91FF90E4
:104C9000EF90DF90CF900895CE0101960E9493048B
:104CA000789400913B0110913C01F801668D778D5D
:104CB00080A191A10AD220E030E040E85FE4BBD2BD
:104CC0006B017C01F801628D738D848D958DFDD112
:104CD0009B01AC01C701B601F7D020E030E0A9018B
:104CE000F3D0C7D16B017C010E949B04B701A601E0
:104CF00090E080E00E940504F89480914F04815078
:104D000080934F048A81882389F080914E0491E03A
:104D1000980F90934E04882349F021E030E03093BF
:104D200052042093510480934E04ABCF80914E04E3
:104D3000882309F4A6CF809150048111A2CF81E08D
:104D4000809350047894F80162A573A584A595A575
:104D5000BCD120E030E040E85FE46DD26B017C0123
:104D6000F80166A177A180A591A5AFD19B01AC0107
:104D7000C701B601A9D020E030E040E251E45BD2A7
:104D800020E030E0A901A0D074D16B017C010E9429
:104D90002005B701A60181E090E00E940504F89487
:104DA00080914E04815080934E0480915004815034
:104DB0008093500466CF0F931F93CF93DF9310928D
:104DC0002E0510922D053FD363DEC0913B01D0919B
:104DD0003C01198218826FEF7FEFCB010E9488049B
:104DE00070E060E090E080E00E940903009709F025
:104DF0003AC00E941E06F8947894BE01605D7F4F11
:104E00008A819B810E940C03892B59F46FEF7FEFFD
:104E1000CB010E949B030E948204882311F081E051
:104E20008CABF8946DDE0E948504882311F080E03D
:104E300008C00E9482048111FACF81E09CA99111DF
:104E4000F6CF80932D0578940E946A0D8C0178949A
:104E500080912D0581110CC00E94F4060E94670408
:104E6000F89490E080E0DF91CF911F910F91089529
:104E70000E9465040E9485048823D9F081E0809314
:104E80002E0590912E0581E0911180E080932D05F3
:104E900080912E05811153DE0130110529F40E9405
:104EA0006A0D892B09F455DE0E946A0D8C014FDED4
:104EB000CFCF0E9482048111E1CF81E09CA99111A2
:104EC000DECF80E0DCCF5058BB27AA270ED075C1BB
:104ED00066D130F06BD120F031F49F3F11F41EF415
:104EE0005BC10EF4E095E7FB51C1E92F77D180F368
:104EF000BA17620773078407950718F071F49EF5D7
:104F00008FC10EF4E0950B2EBA2FA02D0B01B90125
:104F100090010C01CA01A0011124FF27591B99F02F
:104F2000593F50F4503E68F11A16F040A22F232F3B
:104F3000342F4427585FF3CF469537952795A7958B
:104F4000F0405395C9F77EF41F16BA0B620B730B32
:104F5000840BBAF09150A1F0FF0FBB1F661F771FA3
:104F6000881FC2F70EC0BA0F621F731F841F48F458
:104F7000879577956795B795F7959E3F08F0B3CFDE
:104F80009395880F08F09927EE0F979587950895C8
:104F9000D9D008F481E008950CD00FC107D140F0BA
:104FA000FED030F021F45F3F19F0F0C0511139C14B
:104FB000F3C014D198F39923C9F35523B1F3951B8A
:104FC000550BBB27AA2762177307840738F09F5F2A
:104FD0005F4F220F331F441FAA1FA9F333D00E2E99
:104FE0003AF0E0E830D091505040E695001CCAF706
:104FF00029D0FE2F27D0660F771F881FBB1F2617CB
:1050000037074807AB07B0E809F0BB0B802DBF019D
:10501000FF2793585F4F2AF09E3F510568F0B6C0B6
:1050200000C15F3FECF3983EDCF38695779567957A
:10503000B795F7959F5FC9F7880F911D969587954E
:1050400097F90895E1E0660F771F881FBB1F62176D
:1050500073078407BA0720F0621B730B840BBA0B2B
:10506000EE1F88F7E095089504D06894B111D9C077
:105070000895BCD088F09F5790F0B92F9927B75169
:10508000A0F0D1F0660F771F881F991F1AF0BA950C
:10509000C9F712C0B13081F0C3D0B1E00895C0C0EB
:1050A000672F782F8827B85F39F0B93FCCF3869502
:1050B00077956795B395D9F73EF49095809570955F
:1050C00061957F4F8F4F9F4F0895E89409C097FBDC
:1050D0003EF490958095709561957F4F8F4F9F4FCF
:1050E0009923A9F0F92F96E9BB279395F695879513
:1050F00077956795B795F111F8CFFAF4BB0F11F4D6
:1051000060FF1BC06F5F7F4F8F4F9F4F16C088237C
:1051100011F096E911C0772321F09EE8872F762FB2
:1051200005C0662371F096E8862F70E060E02AF0F3
:105130009A95660F771F881FDAF7880F96958795DF
:1051400097F90895990F0008550FAA0BE0E8FEEFB4
:1051500016161706E807F907C0F012161306E4073B
:10516000F50798F0621B730B840B950B39F40A2634
:1051700061F0232B242B252B21F408950A2609F412
:10518000A140A6958FEF811D811D089597F99F6716
:1051900080E870E060E008959FEF80EC08950024BF
:1051A0000A941616170618060906089500240A948C
:1051B00012161306140605060895092E0394000C12
:1051C00011F4882352F0BB0F40F4BF2B11F460FFA1
:1051D00004C06F5F7F4F8F4F9F4F089557FD9058CA
:1051E000440F551F59F05F3F71F04795880F97FBAB
:1051F000991F61F09F3F79F0879508951216130665
:105200001406551FF2CF4695F1DF08C01616170693
:105210001806991FF1CF86957105610508940895C8
:10522000E894BB2766277727CB0197F908958ADF93
:1052300008F48FEF08950BD0C0CFB1DF28F0B6DFB0
:1052400018F0952309F0A2CFA7CF1124EACFC6DF2B
:10525000A0F3959FD1F3950F50E0551F629FF00189
:10526000729FBB27F00DB11D639FAA27F00DB11DE2
:10527000AA1F649F6627B00DA11D661F829F22276B
:10528000B00DA11D621F739FB00DA11D621F839FF2
:10529000A00D611D221F749F3327A00D611D231FC8
:1052A000849F600D211D822F762F6A2F11249F5716
:1052B00050408AF0E1F088234AF0EE0FFF1FBB1F39
:1052C000661F771F881F91505040A9F79E3F5105D8
:1052D00070F05CCFA6CF5F3FECF3983EDCF3869591
:1052E00077956795B795F795E7959F5FC1F7FE2B83
:1052F000880F911D9695879597F908951F920F92A3
:105300000FB60F9211242F933F938F939F93AF93D8
:10531000BF938091540490915504A0915604B0918C
:1053200057043091530423E0230F2D3758F501968D
:10533000A11DB11D209353048093540490935504F0
:10534000A0935604B0935704809158049091590447
:10535000A0915A04B0915B040196A11DB11D8093E8
:10536000580490935904A0935A04B0935B04BF91DE
:10537000AF919F918F913F912F910F900FBE0F9002
:105380001F90189526E8230F0296A11DB11DD2CFBC
:105390003FB7F8948091580490915904A0915A0411
:1053A000B0915B0426B5A89B05C02F3F19F001966C
:1053B000A11DB11D3FBFBA2FA92F982F8827BC016F
:1053C000CD01620F711D811D911D42E0660F771F97
:1053D000881F991F4A95D1F708958F929F92AF9297
:1053E000BF92CF92DF92EF92FF926B017C01D0DFF0
:1053F0004B015C01C114D104E104F104D9F069D37B
:10540000C7DF681979098A099B09683E73408105DD
:10541000910580F321E0C21AD108E108F10888EE75
:10542000880E83E0981EA11CB11CC114D104E104B4
:10543000F10431F7FF90EF90DF90CF90BF90AF90E5
:105440009F908F900895789484B5826084BD84B5D0
:10545000816084BD85B5826085BD85B5816085BD6F
:10546000EEE6F0E0808181608083E1E8F0E0108288
:10547000808182608083808181608083E0E8F0E0C9
:10548000808181608083E1EBF0E0808184608083B3
:10549000E0EBF0E0808181608083EAE7F0E08081EA
:1054A000846080838081826080838081816080834A
:1054B0008081806880831092C10008958E3008F04A
:1054C0008E502091390190E4299F9001112487701A
:1054D000822B80937C0080917A00806480937A0094
:1054E00080917A0086FDFCCF8091780090917900C0
:1054F00008951F93CF93DF93182FEB0161E07DD0C8
:10550000209731F460E0812FDF91CF911F91B1C0DE
:10551000CF3FD10511F461E0F6CFE12FF0E0E8597B
:10552000FF4FE491E33031F140F4E130B1F0E2308B
:10553000E1F0C038D1057CF7E5CFE73029F1E8305C
:1055400059F1E430B1F7809180008062809380004F
:10555000D0938B00C0938A0004C084B5806884BD5A
:10556000C7BDDF91CF911F91089584B5806284BD3E
:10557000C8BDF7CF80918000806880938000D09371
:105580008900C0938800EDCF8091B000806880933F
:10559000B000C093B300E5CF8091B00080628093EB
:1055A000B000C093B400DDCF833081F028F48130A7
:1055B00099F08230A9F008958730A9F08830C9F0B9
:1055C0008430B1F4809180008F7D03C08091800091
:1055D0008F7780938000089584B58F7784BD089578
:1055E00084B58F7DFBCF8091B0008F778093B00022
:1055F00008958091B0008F7DF9CFCF93DF9390E035
:10560000FC01E458FF4F249180579F4FFC01849187
:105610008823C9F090E0880F991FFC01E854FF4FE0
:10562000A591B491FC01E255FF4FC591D491611150
:105630000DC09FB7F8948C91209582238C9388811C
:10564000282328839FBFDF91CF910895623051F4C2
:105650009FB7F8943C91822F809583238C93E881A7
:105660002E2BEFCF8FB7F894EC912E2B2C938FBF6E
:10567000EACF1F93CF93DF93282F30E0F901E85949
:10568000FF4F8491F901E458FF4FD491F901E0579D
:10569000FF4FC491CC23A1F0162F811185DFEC2F91
:1056A000F0E0EE0FFF1FE255FF4FA591B4918FB7C9
:1056B000F894EC91111108C0D095DE23DC938FBFD4
:1056C000DF91CF911F910895DE2BF8CF0F931F9399
:1056D00090E0FC01E458FF4F7491FC01E057FF4F4C
:1056E000E4916111672FF0E0EE0FFF1FEC55FF4FC3
:1056F0008591949189019A013F70462F672F0E94EE
:105700008B00611571058105910529F06F5F7F4F51
:105710008F4F9F4F9F701F910F910895FC01918DA6
:10572000228D892F90E0805C9F4F821B91098F739F
:1057300099270895FC01918D828D981731F0828D03
:10574000E80FF11D858D90E008958FEF9FEF08958C
:10575000FC01918D828D981761F0A28DAE0FBF2F45
:10576000B11D5D968C91928D9F5F9F73928F90E09B
:1057700008958FEF9FEF0895FC01538D448D252FE1
:1057800030E0842F90E0821B930B541710F0CF96DB
:10579000089501970895FC01A48DA80FB92FB11D9C
:1057A000A35ABF4F2C91848D90E001968F73992757
:1057B000848FA689B7892C93A089B1898C91837035
:1057C00080648C93938D848D981306C00288F3892E
:1057D000E02D80818F7D80830895CF93DF93EC014E
:1057E000888D8823B1F0AA89BB89E889F9898C91D1
:1057F00085FD03C0808186FD0CC00FB607FCF7CF86
:105800008C9185FFF2CF808185FFEDCFCE01C3DF84
:10581000EACFDF91CF910895EF92FF920F931F93FC
:10582000CF93DF93EC0181E0888F9B8D8C8D981353
:105830001AC0E889F989808185FF15C09FB7F8945F
:10584000EE89FF896083E889F989808183708064AB
:1058500080839FBF81E090E0DF91CF911F910F91F6
:10586000FF90EF900895F62E0B8D10E00F5F1F4F05
:105870000F731127E02E8C8D8E110BC00FB607FC15
:10588000FACFE889F989808185FFF5CFCE0183DFE2
:10589000F2CFEB8DEC0FFD2FF11DE35AFF4FF0829D
:1058A0009FB7F8940B8FEA89FB8980818062D0CF03
:1058B000CF92DF92EF92FF921F93CF93DF93EC0191
:1058C0006A017B01122FE889F98982E08083C11483
:1058D00081EED806E104F10499F060E079E08DE30F
:1058E00090E0A70196010AD12150310941095109DF
:1058F0005695479537952795211580E1380790F003
:10590000E889F989108260E874E88EE190E0A701E7
:105910009601F4D021503109410951095695479516
:1059200037952795EC85FD853083EE85FF852083AF
:10593000188EEC89FD891083EA89FB89808180615A
:105940008083EA89FB89808188608083EA89FB897A
:10595000808180688083EA89FB8980818F7D808354
:10596000DF91CF911F91FF90EF90DF90CF9008953E
:105970001F920F920FB60F9211242F938F939F9324
:10598000EF93FF93E0916C04F0916D048081E091BE
:105990007204F091730482FD1BC0908180917504A4
:1059A0008F5F8F7320917604821741F0E091750428
:1059B000F0E0E45AFB4F958F80937504FF91EF91CF
:1059C0009F918F912F910F900FBE0F901F90189560
:1059D0008081F4CF1F920F920FB60F9211242F9354
:1059E0003F934F935F936F937F938F939F93AF9367
:1059F000BF93EF93FF938CE594E0CDDEFF91EF91A1
:105A0000BF91AF919F918F917F916F915F914F91D6
:105A10003F912F910F900FBE0F901F901895ECE5BE
:105A2000F4E01382128288EE93E0A0E0B0E0848379
:105A30009583A683B7838FEB91E09183808385EC78
:105A400090E09587848784EC90E09787868780EC48
:105A500090E0918B808B81EC90E0938B828B82EC39
:105A600090E0958B848B86EC90E0978B868B118EE3
:105A7000128E138E148E0895AF92BF92CF92DF9242
:105A8000EF92FF920F931F93CF93DF936C017B01F3
:105A90008B01040F151FEB015E01AE18BF08C01784
:105AA000D10759F06991D601ED91FC910190F081F7
:105AB000E02DC6010995892B79F7C501DF91CF91BA
:105AC0001F910F91FF90EF90DF90CF90BF90AF901C
:105AD00008950895AA1BBB1B51E107C0AA1FBB1F55
